:020000040000FA
:1000000000462020690200006D0200006F0200001F
:1000100000000000000000000000000000000000E0
:10002000000000000000000000000000710200005D
:100030000000000000000000730200000929000019
:1000400077020000A921000077020000C92A000001
:1000500077020000770200007702000077020000BC
:10006000000000007702000077020000000000009E
:100070000000000077020000A12A0000752A00009D
:1000800077020000252A000019290000AD29000090
:10009000770200007702000000000000000000006E
:1000A000770200007702000000000000000000005E
:1000B00077020000000000007702000077020000D5
:1000C00000F002F800F0C1F80CA030C8083824187D
:1000D0002D18671EA246AB4654465D46AC4201D180
:1000E00000F0B3F87E460F3EB6460FCC01263342F1
:1000F00000D0FB1A3343A246AB461847EC3E000043
:100100000C3F000000000000103A02D378C878C10C
:10011000FAD8520701D330C830C101D504680C6049
:100120007047000000000000002300240025002686
:10013000103A01D378C1FBD8520700D330C100D5A3
:100140000B60704710B56E2902D100F09BFC10BD0A
:10015000702902D100F0DDFD10BD662902D103F047
:10016000DFFD10BD652902D103F0DAFD10BD67295E
:1001700002D103F0D5FD10BD612902D103F0D8FDF5
:1001800010BD03681B0A01D380231943692902D1DA
:1001900000F0C6F810BD642902D100F0C1F810BD0E
:1001A000752902D100F0BCF810BD6F2902D100F012
:1001B0005BFD10BD782902D100F098FD10BDE92942
:1001C00002D100F0F7FC10BDE42902D100F0F2FCEE
:1001D00010BDF52902D100F0EDFC10BDEF2902D1D0
:1001E00000F04EFD10BDF82902D100F08DFD10BDCC
:1001F0000368DB0901D380231943632902D101F08D
:1002000068F910BD732902D101F06BF910BDE32923
:1002100002D101F075F910BDF32902D101F078F98E
:1002200010BD002010BD1FB501F0F2F90400002040
:10023000002103F005FC401C60600020002103F059
:10024000E9FBE0601FBD10B510BD01F0B9F9114622
:10025000FFF7E9FF03F098F901F04EFD03B4FFF753
:10026000F2FF03BC01F0FCFD06480047FEE7FEE795
:10027000FEE7FEE7FEE7FEE703480449044A054BB4
:1002800070470000C100000000042020004620202C
:1002900000062020000620207CB51D4616460C00D6
:1002A000009001D00019401E084B7B442A46694645
:1002B0000190304600F0FFFB002C054603D0694654
:1002C000002000F00BFC28467CBD0000390800002F
:1002D00070B5044685690068C10601D5302600E086
:1002E0002026C00707D070BD62683046A1689047DD
:1002F000206A401C20626D1EF6D570BD70B50446A4
:1003000085690078C00707D170BD6268A1682020A8
:100310009047206A401C20626D1EF6D570BD00001B
:10032000F7B5002575291068009914A611D000F0C2
:1003300016FB002802DA404211A608E0009909687D
:100340008A0701D50FA602E0490704D50EA60125AC
:1003500001E000F00DFB009F0024243704E000F0D2
:10036000E5FC30313955641C0028F8D12B46324663
:100370002146009800F02EFBFEBD000000000000AA
:100380002D0000002B00000020000000F3B5044603
:10039000002081B020622046E1688847002872D0A2
:1003A000252802D06268A168ABE0594F00267F443F
:1003B0002046E16888472028054608DB312D06D213
:1003C000781920380078002801D00643F0E7B007FC
:1003D00001D5042086430020E0610746A0612A2D54
:1003E0000AD0284603F00EFB002827D0B8000019D9
:1003F000303D0090856119E00298BA00121902C8D8
:10040000916102902046E1688847012F054617D187
:10041000E06900281FDA202086431CE000980A21AA
:100420008069484300994019303888612046E16866
:100430008847054603F0E6FA0028EFD1012F0AD0DD
:100440002E2D08D12046E168884705462020064326
:100450007F1C022FC3DBA069002803DA4042A061A1
:1004600001200643F00701D0102086436C2D0BD0ED
:10047000682D09D04C2D3CD06A2D38D0742D38D041
:100480007A2D36D016E040E0E1682F4620468847B6
:10049000B842054609D16C2F29D001208002E168BD
:1004A000064320468847054604E06C2F1DD0FF20F8
:1004B00001300643002D28D028464138192803D89A
:1004C0000120C00206432035204626602946029AB4
:1004D0001646FFF737FE002810D001280BD0F61D76
:1004E000F008C0000830029055E74020E1E7802086
:1004F000D5E70020D3E7361D02964CE76268284610
:10050000A1689047206A401C44E7206AFEBD0000B5
:100510008E39000001E004C0091F0429FBD28B07BB
:1005200001D50280801CC90700D0027070470029E5
:100530000BD0C30702D00270401C491E022904D30D
:10054000830702D50280801C891EE3E70022EEE7C4
:100550000022DFE7002203098B4273D3030A8B4298
:1005600058D3030B8B423CD3030C8B4221D312E0B4
:1005700003460B437FD4002243088B4274D3030904
:100580008B425FD3030A8B4244D3030B8B4228D3A5
:10059000030C8B420DD30902FF2212BA030C8B42CB
:1005A00002D31212090265D0030B8B4219D300E06B
:1005B000090AC30B8B4201D3CB03C01A5241830BF0
:1005C0008B4201D38B03C01A5241430B8B4201D3A0
:1005D0004B03C01A5241030B8B4201D30B03C01AC9
:1005E0005241C30A8B4201D3CB02C01A5241830A43
:1005F0008B4201D38B02C01A5241430A8B4201D372
:100600004B02C01A5241030A8B4201D30B02C01A9B
:100610005241CDD2C3098B4201D3CB01C01A524102
:1006200083098B4201D38B01C01A524143098B428B
:1006300001D34B01C01A524103098B4201D30B0174
:10064000C01A5241C3088B4201D3CB00C01A524199
:1006500083088B4201D38B00C01A524143088B425E
:1006600001D34B00C01A5241411A00D201465241F7
:10067000104670475DE0CA0F00D04942031000D316
:10068000404253409C46002203098B422DD3030A6B
:100690008B4212D38901FC2212BA030A8B420CD37B
:1006A000890192118B4208D3890192118B4204D3A4
:1006B00089013AD0921100E08909C3098B4201D324
:1006C000CB01C01A524183098B4201D38B01C01A5E
:1006D000524143098B4201D34B01C01A52410309D5
:1006E0008B4201D30B01C01A5241C3088B4201D384
:1006F000CB00C01A524183088B4201D38B00C01A31
:100700005241D9D243088B4201D34B00C01A524107
:10071000411A00D201465241104663465B1001D394
:100720004042002B00D54942704763465B1000D31E
:10073000404201B50449002802DC491C084000E0A1
:100740000846C046C04602BDFFFFFF7F70477047A6
:1007500070470000F0B5FF252D04C609C209FF2728
:1007600004462E400137CB093E4348402A402B40E7
:100770000746002A6BD0002B69D0AA4267D0AB4253
:1007800065D0002800DA32460125ED0529432C43C7
:1007900009022002090AD21A4B0C7F24E31A434CA7
:1007A000000A7C44E35C7D242404121914145B00C9
:1007B000A218884201D3521C00E0400049420C4676
:1007C0005C4324115C43DB016415E318040A5C43B9
:1007D000C502200D0C4644436419250A5D432303DA
:1007E000EC0C0D46654300030019EB184C42A34284
:1007F00001D35B18401CD4052018002B07D05B00E8
:10080000C91804D3401C002901D1400840003F21F1
:1008100089048A4209D3002A08DC1106090F04D092
:10082000032149074018C00FC007F0BD0122410055
:10083000120689187F2252069142F6D205214907F5
:10084000C84201D59010F0BDFF20C005F0BD002FBB
:1008500000DA32461648AA4207D2AB4205D2190244
:10086000090E17D0F80FC007F0BDFF2563002D0655
:10087000AB42F9D84900A942F6D8AB4201D1A9420E
:10088000F2D0A94201D1002101E061004908D00560
:100890000843F0BD1102090EFBD0FF200243D00532
:1008A000F0BD0A460146104654E70000AB35000093
:1008B0000000C07F10B501469E240002CA15A307A0
:1008C000002A02D01843002A04DBA21A002A0CDDF9
:1008D000D04010BD1206120E01D140004008A21AED
:1008E00003D4D04040420028F3DDFF224800120626
:1008F000904201D9002010BDC817C043584010BD18
:100900001F22030C02D10F2200041CD0030E01D1C0
:100910000002083A030F01D10001121F830F01D119
:100920008000921E002801DB4000521ED2055118A3
:10093000021251181922904004D3491C002801D1F9
:100940004908490008467047C10FC90700D0404216
:10095000012292071143D3E701218907D0E70968F3
:100960004A0501D540B27047C905FCD500B27047B1
:1009700009684A0501D5C0B27047C905FCD580B2E7
:10098000704770B50C460546012A05D028788006C8
:1009900000D5EA69002302E0012305E05B1C9342D5
:1009A00002D2E05C0028F9D1A869E618C01AA86153
:1009B000286AC01828622846FFF78AFC04E06A68A3
:1009C0002078A968641C9047B442F8D32846FFF702
:1009D00095FC70BDFFB504460D4681B024300090F3
:1009E0002168880604D51022E0699143216000E067
:1009F0000120A84201DD471B00E000270498A169FF
:100A00007A191018081AA0612078C00602D420466E
:100A1000FFF75EFC002608E003986268A168805D2D
:100A20009047206A401C761C206204988642F3DBC3
:100A30002078C0060AD52046FFF74AFC06E0626827
:100A4000A16830209047206A401C206238467F1EF3
:100A50000028F4DC07E000986268A168405D9047D8
:100A6000206A401C206228466D1E0028F3DC2046C8
:100A7000FFF744FC2078000602D5022005B0F0BD47
:100A80000120FBE711680268006A530501D5087070
:100A900009E0D30501D5088005E0130602D5C21789
:100AA00005C100E0086001207047000001694A1C90
:100AB00002610878704700B58FB00291002105915E
:100AC0000549019379440391114604906846FFF764
:100AD0005DFC0FB000BD0000E5FFFFFF0A6810706D
:100AE000521C0A6070470CC908399A4202D2531C42
:100AF0000B60107070470000F7B50446154686B0CD
:100B00002B487844002703C83E460090019111E02D
:100B100007986A467100415A02A800F0FDFC411C8A
:100B200007D02178890603D5E269391891420ED899
:100B30003F18761C2078800602D5E069B84206DDB1
:100B4000AE42E5DB07987100405A0028E0D1A06969
:100B5000C01BA0612046FFF7BBFB154878445A38FC
:100B600003C800900020019116E041006A460798F2
:100B7000415A02A800F0D0FC0590401C0AD0002584
:100B800005E0626802A8A168405D90476D1C059869
:100B90008542F6D30498401CB0420490E5DB206AFD
:100BA000C01920622046FFF7A9FB09B0F0BD000084
:100BB0008E320000F7B5D21D0025D20815A6D2004E
:100BC000F52905CA11D0002A05DA002140429141D9
:100BD00011A60A4608E0009909688B0701D50FA6FF
:100BE00002E0490701D50EA601251146009F002409
:100BF000243704E000F0AEF830323A55641C024667
:100C00000A43F7D12B46324621460098FFF7E2FE11
:100C1000FEBD0000000000002D0000002B000000C1
:100C20002000000070B504460021243408E0550778
:100C3000D2086D0F303565545D072A43DB08491C27
:100C400015461D43F3D10468002310A2250708D5DB
:100C500020252C400C4304D0C46901230CA2641E3F
:100C6000C461FFF7B7FE70BD10B504462146106899
:100C7000FFF77EFE002302462046FFF7D3FF10BD9C
:100C8000D21DD108C9000CC9CCE70000000000004B
:100C900030000000F8B50F460188090502D5224C46
:100CA0007C4402E0204C7C440E340546002124356F
:100CB00008E016071209360FA65D6E541E07324370
:100CC0001B09491C16461E43F3D122460478002313
:100CD000240705D5702F06D0002901D00223113238
:100CE000FFF778FEF8BD01231032F9E770B504462E
:100CF0000D4621461068FFF73BFE002302462946B9
:100D00002046FFF7C7FF70BDD21DD308DB000CCB18
:100D1000C0E730B40368202412682343036008232B
:100D2000C36130BC0023B5E7F830000001468008FD
:100D3000081A02091018020A1018020C1018C0082C
:100D4000820012185200891A01E0401C0A390A294F
:100D5000FBD270470B4670B50246890780080843EE
:100D600019469D08141AA9412509080705430809D1
:100D70002C194841250A01060D43010A2C1941414D
:100D8000200C0D0428430D0C00194D410021401981
:100D90004D41C00869070843E908840F8D002543C9
:100DA000840024184D4124196D41121BAB4107E00A
:100DB0000925ED432C11521963410024401C614167
:100DC0001C460A250026551BB441F1D270BD000017
:100DD000FFB50C461E468FB003CA089009914F001C
:100DE0007D0D00D16D1E002108460020C046032164
:100DF000099A89050840002A03DA82008018400811
:100E00000840800D01280A9002DD0020C0430A90AE
:100E1000089807430DD0F048F049281848430714B4
:100E2000189800281DD07542291E1DDD0A984242DF
:100E30001BE01898012802D00020302104E0002097
:100E4000F24305E02154401CB042FBDB3046002257
:100E5000189B002121540F998B600A60486013B0E1
:100E6000F0BDBD1B6D1CDFE70A9A002900DA69425C
:100E70000BA800F015FC0BAB07CB03AB07C308991D
:100E8000099800F079FC6B4607C30146D44809185D
:100E9000002D00910BDDD24903980A9A494240186F
:100EA000002303A90390684600F0D6FE08E00399EA
:100EB0000A9A0023081803A90390684600F076FEFA
:100EC0006B4607C30004000C03D00020C043410858
:100ED00000E01046189A002A03D00022009215461E
:100EE0001EE0751E05D4FFF735FF303262556D1ECA
:100EF000F9D501220843079602D000227F1C04E0A6
:100F00002078302801D100227F1E002A069787D042
:100F10001EE0112D07DAFFF71DFF303262556D1C00
:100F200002460A43F5D1084303D00098002819D09F
:100F30000EE00021681E05E0235C625C63542254CD
:100F4000401E491C8142F7DBA81B401E07950690F6
:100F5000079A18990020A0540F98079B069A816061
:100F60000CC07CE711260020189059E7D21DF0B57F
:100F70000D460446D10893B0C90003C90C900D91E9
:100F800002F0FCFC02460D98C00F01D02D2007E0B6
:100F90002068810701D52B2002E04007C00F4001E7
:100FA000032A0F9001D0072A05DB03462946204675
:100FB00000F032FB0EE12078800601D5E76900E001
:100FC00006272846652D04D0662814D0672D69D1E0
:100FD0002DE00020112F009001DB112300E07B1C8D
:100FE0000CAA03A910A8FFF7F3FE11990026109888
:100FF0007D1C0E9142E001203B460CAAC0070B90DD
:101000000120009003A910A8FFF7E2FE119D12989D
:101010001099002600280E9501D1781C0D18781B18
:1010200002D446427D1C761EE81B00903AE0012F58
:1010300000DA01270020112F009001DD112300E0CC
:101040003B460CAA03A910A8FFF7C2FE11993D4622
:10105000109800260E91217809070BD40E99A94209
:1010600000DA0D4603A9012D04DD4A19203AD27F8A
:10107000302A06D0B84201DA011D04DA01210091BC
:101080000FE06D1EEFE7002802DC86192D1A03E041
:10109000411CA94200DD0D46801B401C0090012030
:1010A000C0070B902078000705D40098A84202DB07
:1010B0000020C043009069460020C8720B980121AF
:1010C00002AF0337C907884225D0022010902B2099
:1010D00011900B9800280BDA40420B902D201190B4
:1010E00006E00B98FFF722FE30317F1E0B9039701F
:1010F0001099481E00291090F3DC0B980028F0D1BD
:1011000011987F1E38702088000501D5452000E029
:1011100065207F1E387001A8C01BC01D0B900F9862
:10112000002800D0012041190098C01709180B9819
:101130000818A169081A401EA0612078C00602D4D0
:101140002046FFF7C5F80F98002805D06268A1680F
:101150009047206A401C20622078C00625D5204692
:10116000FFF7B6F821E0002E07DB0E98B04204DD51
:1011700003A86268805DA16802E06268A16830200F
:101180009047206A761C401C20620098401E002870
:1011900000900AD100F03CFAC06862680168405CC7
:1011A000A1689047206A401C206228466D1E0028D6
:1011B000D9DC07E062683878A1687F1C9047206A14
:1011C000401C20620B99481E00290B90F2DC20463F
:1011D000FFF794F8032042E601FCFFFF104D0000EA
:1011E000E1DFFFFFD21DF0B504460D46D0088DB0FB
:1011F000C000466807683146384602F0BFFB024629
:10120000F00F01D02D2307E02068810701D52B23A3
:1012100002E04007C00F43016846002B037001D075
:10122000012000E00020032A0A9001D0072A04DBF5
:101230002946204600F0F0F92DE12078800601D4FF
:101240000D2500E0E5697000400D0D2D01904BDA91
:10125000300D00210B9008460020C046032189056F
:101260000840002E05DA82008018C20F10184010C6
:1012700008408015012801DD0020C043A90000239B
:10128000182906D39C460A460123183A1B07D34067
:1012900003E001221205CA4094460C31202902D3F2
:1012A0003A46203900E032468A40002802DD002A12
:1012B00006D119E0002817D10121C9078A4213D3AA
:1012C000194663467F185E41002806D10120C007F9
:1012D000824202D1084687439E430B98310D8142DA
:1012E00002D00198401C01902088000502D5714968
:1012F000794402E06F49794419396B460A983022E3
:101300001A540A980A7C401C1A54401C0A900198EE
:10131000002801DC302000E031201872019A012001
:10132000002A02D0644BD21804E072003A4302D083
:10133000614A521C0192002D02DC2278120703D56B
:101340006A462E20507202200022864694460CE007
:1013500032033601120F6D1E8B5C02AA13546246D3
:10136000521C401C9446052A01DA002DF0DC0022B4
:1013700002AE08E03B0F3F01CB5C521C6D1E3354A4
:10138000401C082A01DA002DF4DC23689A0601D5F6
:1013900011E0401E704504DD3218203AD27F302A19
:1013A000F7D0002807DD3218203AD27F2E2A02D14A
:1013B0001A0700D4401E002D03DD3E223254401C8B
:1013C0006D1E497C31540199401C002906DA2D21FB
:1013D000471C315401984042019003E02B21471CE7
:1013E000315401987D21C900884206DBFFF7C0F81F
:1013F0003030F0557F1C019101E0642808DB019832
:101400006421FFF7B5F83030F0557F1C019101E001
:101410000A2806DB01980A21FFF7AAF83030F055B8
:101420007F1C01980A21FFF7A3F83031F1550A9883
:10143000A1697F1C7A191018081AA0612078C006CB
:1014400002D42046FEF744FF216A6E460A98081827
:10145000206204E062683078A168761C90470A98A0
:10146000401E0A90401CF5D12078C00602D52046C7
:10147000FEF72EFF02AE09E03078761C3E280DD034
:101480006268A1689047206A401C20627F1EF3D2E8
:101490002046FEF733FF0DB00320F0BD206A40194F
:1014A000206203E06268A168302090476D1EEDD392
:1014B000F8E70000E32A000001FCFFFF10B54369D4
:1014C000002B02D0C046C04601E0FFF75AFA0120C7
:1014D00010BD1278014624310A7000224A700122A0
:1014E000ECE711680022D243E8E710B54369002B0E
:1014F00002D0C046C04601E0FFF7FEFA012010BD51
:1015000012880146243182840022C2840122ECE741
:1015100011680022D243E8E7F8B516460C460546A6
:1015200000F06EF80368FF200230C05C012807D08D
:10153000FF2C0FD8185D00280CD001202C70F8BDAE
:10154000FF333246214608331868C718284600235F
:10155000B847F8BD0020C043F8BD000010B5FF2318
:101560001B0644009C421DD84C009C421AD80346DE
:10157000124A0B4307D4401A02D3EFF3008010BD88
:10158000EFF3008010BD081A03D3EFF300809043FF
:1015900005E0EFF3008001219043C907084380F381
:1015A000008810BD0D231B041A4204D011460020F0
:1015B00000F0AAFB10BD00F0BFFB10BD00000090C2
:1015C000754600F0C1FBAE46050069465346C008AB
:1015D000C000854618B020B5FEF74EFE60BCB6468A
:1015E00000260027C0C5C0C5C0C5C0C5C0C5C0C590
:1015F000C0C5C0C5403D490849008D467047000040
:1016000010B500F005F8001D10BD00BF3524000026
:101610000048704728002020F8B51F4604460123E3
:101620000068DB02032601461840072A05DB002874
:1016300001D017A506E017A504E0002801D016A5E3
:1016400000E016A5102081432160A069C01E002F74
:10165000A06101D0401EA0612046FEF739FE002F98
:1016600009D038466268A1689047206A401C206211
:10167000C01C206206E0206AFAE762682878A16848
:101680006D1C9047761EF8D22046FEF737FEF8BD57
:101690004E414E006E616E00494E4600696E660016
:1016A000F7B516468AB0334878446C4603467C3317
:1016B000C06F5A689B680DC42E487844763003ACDE
:1016C0000DC80DC43720C001081837211B30FEF7A4
:1016D0004FFF05460C46803D1B3C02D5644201206D
:1016E00000E000200027099010E0E0070CD00C205B
:1016F00020497843794432464C39411868460123E1
:1017000000F054FA6B4607C364107F1C002CECD128
:10171000184F7F442E3F16E0E80712D02001C01971
:101720000EC80691089307920068F04201D19819FB
:1017300008903246012306A903A800F037FA03AB4C
:1017400007C36D10641C002DE6D10998002806D04F
:1017500032466946012303A800F07EFA05E0012322
:101760003246694603A800F021FA0A9B07C30DB070
:10177000F0BD000040270000034640000A4610B5B7
:10178000400D0BD00121C9070F24A40200191C032E
:1017900064082143540D2143D20207E000210120B7
:1017A000F2E7D40F490021435200401E0029F8DA25
:1017B000DB0FDB07184310BDFFB50D46144685B09F
:1017C0004868516802F0C2F800910190A868A168C9
:1017D00002F0BCF802910390A868616802F0B6F8C4
:1017E000029A12188242029201D2012000E00020E7
:1017F000019A0B18D2180028019202D08A4202D90D
:1018000003E08A4201D2012000E00020009908187C
:1018100000906868A16802F099F8029A1218824252
:10182000029201D2012000E00020019A0B18D21888
:101830000028019202D08A4202D903E08A4201D2F2
:10184000012000E000200099081800902868216815
:1018500040004900400849084018FA49471814E078
:1018600001994000C90F0843009001980299400077
:10187000C90F08430190029803994000C90F08431B
:101880000290039840007F1E039000980028E7DA3A
:101890000898002801D0EC4E00E00026B74201DA9B
:1018A000012000E00020002804902AD0F71BF80651
:1018B000C00E15D0029B2021091A039A8B401A43AF
:1018C0000392029A019BC2408B401A430292019AF2
:1018D000009BC2408B4000991A430192C140009185
:1018E0007B110DD06F460320C11A03D50021820061
:1018F000B95003E08A008100BA587A50401EF3D5EF
:10190000374603980299002800D001200143089827
:101910000291002808460CD0002800D0012001992F
:10192000019A490508430121D20AC902D202019253
:1019300000E001210E9B0122D207012B02D0002BD7
:1019400003D013E0002807D120E0904204D8904251
:101950000CD1019B0B4209D0019B5918019105D173
:101960000099491C009101D17F1C009200280DD0E4
:10197000102108460020C0460498002806D00F9881
:10198000002803D0082108460020C04628682168A6
:10199000019B009A4840C10F0598C90739430EC002
:1019A00009B0F0BDFFB587B0099A08980899536847
:1019B00092684068896896460022039317469446C9
:1019C000089A12685300099A5B081268520052087C
:1019D0009A1A9E4BD4180A9A002A01D0352200E0A8
:1019E000402206920022012315460492DB0705934C
:1019F00024E0002D05D175460346039E4D1BB341DF
:101A000009D375466646039B491B049D9841059B77
:101A10007519AC465F4163463B4308D0059B049E65
:101A2000DD0776082E435B080496059301E0521EFD
:101A3000641EC50FED0749184041521C069B9A428F
:101A4000D7DB002D04D17546039A6B1A824101D26F
:101A500003200CE0039A0B466B404240134303D033
:101A6000014303D0012002E0022000E00020614693
:101A700001910021009702910A99002905D0614641
:101A800040020143704B019102E080070023029065
:101A90009C4201DA012000E0002007003AD01A1B26
:101AA000D006C00E15D0029D2021019C091AC54008
:101AB0008C402543029C8C4000D001242543019C8E
:101AC0000295009DC4408D4000992C430194C14073
:101AD000009154111DD06D460221002202290CD123
:101AE0000320001B07E0002804DB8600AE59002E0F
:101AF00000D00122401C0328F5DB081B02D588001A
:101B00002A5004E08000285810438A00A850491E3B
:101B1000E3D51C460A98002802980CD0002800D073
:101B200001200199019A490508430121D20AC902FD
:101B3000D202019200E00121109B0122D207012B69
:101B400002D0002B03D013E0002807D11FE0904201
:101B500004D890420CD1019B0B4209D0019B59182B
:101B6000019105D10099491C009101D1641C00929A
:101B700000280CD0102108460020C046002F06D0B7
:101B80001198002803D0082108460020C046089874
:101B90000999019A009B006809684840C10F07989D
:101BA000C907214382600AC00BB0F0BD00B585B003
:101BB000019300920A460146002302A8FFF7FCFDAC
:101BC00002A807C805B000BDFFB50A461F4685B08C
:101BD0000799019301230091014602A8FFF7ECFD4C
:101BE00002990398049ECA0F4900D20700920F225F
:101BF000490892028C1A0021002800DB0C4645009F
:101C000013486D08844214D3079A002A04DA441E4C
:101C10000026104DF64302E004460D460E46102104
:101C200008460020C046002F03D0042108460020AB
:101C3000C0462005E90A0843009908436905F20AED
:101C40001143ADE602C0FFFF013C0000FF3F000072
:101C5000FF070000FFFFFF7F00B585B001930092F2
:101C60000A460146002302A8FFF79CFE02A807C807
:101C7000A8E7FFB50A461F4685B0079901930123DF
:101C80000091014602A8FFF78DFE02990398049E79
:101C9000CA0F4900D20700920F22490892028C1AFB
:101CA0000021002800DB0C46450011486D088442E5
:101CB00014D3079A002A04DA441E00260D4DF64379
:101CC00002E004460D460E46102108460020C0469C
:101CD000002F03D0042108460020C0462005E90A51
:101CE0000843009908436905F20A114358E60000C9
:101CF000FF070000FFFFFF7F10B50446C046C04647
:101D00002046FEF7ABFA10BDC80212D54803400FBB
:101D1000002804D0C803C043012188407047EFF376
:101D200000800001000903210907084380F30088AF
:101D3000704700207047000010B5024800F060F8BE
:101D400010BD00000000C07F004870470800202040
:101D500082078B079A423FD170B5920F0AD00324B5
:101D600002780B78401C491C002A33D09A4231D1AA
:101D70002042F5D1214EF40104C808C9951B9543B2
:101D8000254018D19A420FD104C808C9951B954324
:101D9000254010D19A4207D104C808C9951B954324
:101DA000254008D19A42E7D012BA1BBA01209A42C4
:101DB00000D2404270BD12BA1BBA2DBA18241000CE
:101DC000E0401900E140401A05D12E00E64002D162
:101DD000083CF4D1D01A70BD02780B78401C491C25
:101DE000002A09D09A4207D102780B78401C491C7E
:101DF000002A01D09A42EFD0D01A704701010101A8
:101E000010B50C461107090F092904D00A290AD078
:101E100008290CD104E011460820FFF775FF06E001
:101E2000510606D501E0510601D50120C007214623
:101E300010BDD10607D501010909CC084907000EDC
:101E40000006044309E0410F20024907000A01434C
:101E5000200E00061D22D14101430846E7E700009D
:101E600001491820ABBEFEE7260002007047811E24
:101E7000091F00BFFCD2704710B5002A0FD0912374
:101E80005B01C3180020DC692405240F05D00C5C1D
:101E90001C60401C8242F6D1104680B210BD00206A
:101EA00080B210BD084A835880210B4383508018AC
:101EB0000F221202436813400122D2029342F7D14B
:101EC00002688A43026070473812000070B50A78D1
:101ED0000C231A400124240305196E689E43B2188E
:101EE0006A604978072211400359934359180151F8
:101EF00070BD0000F0B57A4A82183B4BC3180879D0
:101F00004E793A4D784C002E23D0202804D0052657
:101F1000F601002803D003E0354E002800D18826C2
:101F2000576F2F4037435767976F2F403743976757
:101F3000566B26405663966B264096630026566580
:101F400096658F26F6435F6837405F609F6837402D
:101F50009F608E79096820280BD0002819D1491E6E
:101F60005160D76E2F4088210F43D76617467037D0
:101F700019E0491E5160D16E29401D4F3943D16689
:101F8000116F29403943116701214907194D17463F
:101F900009E049085160D76E2F400521C9010F4360
:101FA000D766174670373C682C400C433C60D16ABA
:101FB0004D4C2140D162116B214011630021D1644D
:101FC00011658F21C943D46F0C40D4671C680C4045
:101FD0001C600643BD2030401168074B0B40C01801
:101FE000801C1060F0BDC0468418000024493E00EB
:101FF00001040000FFFFFFCF4000FFCFB0B54A68EB
:10200000364BC250364A80180A78222A58D8930094
:1020100001A4E3589F46C046B7200000C12000003D
:10202000B7200000C1200000C1200000C120000036
:10203000C1200000C1200000C1200000C12000001C
:10204000C1200000C1200000C1200000C12000000C
:10205000C1200000C1200000A5200000C120000018
:10206000A5200000C1200000C1200000C120000008
:10207000C1200000C1200000C1200000C1200000DC
:10208000C1200000C1200000C1200000C1200000CC
:10209000C1200000C1200000A5200000C1200000D8
:1020A000A520000003231B0704689C4301235B0752
:1020B000E318036004E003231B0704689C430460E7
:1020C0000B69C360CB68074C1C40C36A064D1D40BA
:1020D0002B19C362097A11430160B0BD08180000D2
:1020E00004180000777702008888FDFF10B50723E9
:1020F0009B04194092008018024A84589C4361183E
:10210000815010BD3018000010B5029CA4000019C9
:1021100011431943014A815010BDC04650180000B8
:1021200092008018014A81507047C0461018000084
:1021300010B50122120383180C789C604B788350F1
:102140008978014A815010BD0C110000B0B51122F0
:10215000120283580124A34383500B888C781C43BC
:102160008B882343094C1C408358094D1D4063193B
:1021700083508B79CC791C43097A21437E23194003
:10218000801842689A4351184160B0BD186700003A
:10219000E798FDFF10B50122120383180C789C60AC
:1021A0004978815010BD0000F0B50124650200207F
:1021B000C1431D4F3A46103A1368DA051B4A09D548
:1021C00016682E420E4600D02646194F38688019F0
:1021D0003860154F2B420AD020021468044201D007
:1021E0000C4600E00124124805682C190460012403
:1021F000D80008D51068C0070D4600D025460D4808
:10220000066875190560D80708D0200712680242D1
:1022100000D1012107480268511801603868494916
:1022200001433960F0BDC04648100A4080130A409F
:102230006C0020207000202080B54C20DD2100F0B3
:10224000F5FE80BDF0B5344A85245462012631057F
:10225000324801605463310601601346143B842503
:102260001D6035032E4B1D601546103D2C60740318
:102270001C602C4D6F1C2C4C2760EF1C17607606E1
:10228000276837432760176837431760822727641A
:10229000264E66642763666317651664E76617460D
:1022A000183F3E608127D762E7646765101F0760AB
:1022B00010460C3807601762D763A563E5632046B4
:1022C0000838056020461038751E05602765A7642C
:1022D0001763D76418463038154A026018464038EC
:1022E0004122120402601348186013480268134B1D
:1022F0001343036002690A4302611148016A114AEB
:1023000011430162016811430160044A10463038EC
:102310000D4901601160F0BD9C804240D0320A40FE
:10232000D0120A4081000C00148042408200040058
:10233000004000010040410190130A4001000500E7
:1023400028100A4001030010C003C00880B51148DE
:102350001149FFF7BBFD03204102104802680A4300
:10236000026001210A0203681343036000224261F4
:102370001F224262826B07231A4382631A02836B15
:1023800013438363826A042313438362826A0A438A
:10239000826280BD00200F40803E000000320F406E
:1023A0000F48002101600320C1430E480246083A4D
:1023B00013680B4013600168012291430160110210
:1023C00003688B4303601103001F02680A43026025
:1023D000FF20000204490A6882430A607047C04631
:1023E00008030B4008010B4000E400E008480949DD
:1023F0004160FF210906084A13688B4303218907BE
:102400005918116000218160072101607047C046A2
:1024100010E000E0FF7C000020ED00E010B50B4C68
:102420000B492046FFF784FE0A492046FFF7E6FDE8
:1024300009480168012211430160FF200004184986
:102440000B6883430B600548026010BD00008640A6
:10245000823E0000883E0000281086400811864019
:1024600010B50B4C0B492046FFF762FE0A49204687
:10247000FFF7C4FD09480168012211430160FF20F4
:10248000000607490B6883430B600648026010BDD5
:10249000002086409C3E0000A03E00002830864080
:1024A00010E400E00831864070B582B01B4C1C4936
:1024B0002046FFF73DFE1B492046FFF71BFD1A484B
:1024C00001683D4A0A4002600025009520462946E1
:1024D0002A462B46FFF718FE204629462A46FFF7D4
:1024E00005FE204629462A46FFF71AFE01260096D9
:1024F000204629462A462B46FFF706FE2046294657
:102500003246FFF7F3FD204629463246FFF708FE24
:10251000064886600321016002B070BD004008409B
:10252000B43E0000B83E0000045808400051084086
:10253000F0B581B01C4C1D492046FFF7F9FD1C4940
:102540002046FFF7D7FC1B4801681B4A0A4002607F
:1025500000250095204629462A462B46FFF7D4FD44
:10256000204629462A46FFF7C1FD7D2086012046E8
:1025700031462A46FFF7D4FD012700972046294619
:102580002A462B46FFF7C0FD204629463A46FFF76C
:10259000ADFD204631463A46FFF7C2FD0748876049
:1025A0000321016001B0F0BD00008740C03E000083
:1025B000C43E0000041887407F00FFFF00118740E1
:1025C00010B5084C08492046FFF7B2FD07492046E0
:1025D000FFF714FD06480168012211430160054818
:1025E000026010BD00808640CC3E0000D03E00005E
:1025F000289086400891864010B5154C1549204614
:10260000FFF7C8FD14492046FFF7A0FD0320C103D2
:10261000124802688A4302600169604A0A40911CBC
:10262000016141690B220A4334218A4342614168B6
:102630000122114043689343591841609102084BAD
:102640001C680C431C6001681143016010BDC0464A
:1026500000801040E43E0000E63E00000091104083
:102660002890104010B5144C14492046FFF792FDF5
:1026700013492046FFF76AFD0321CA031148036886
:10268000934303600269454B13401A330361426967
:102690000A433C218A434261416801221140436858
:1026A0009343591841609102074B1C680C431C600E
:1026B00001681143016010BD00001040F03E0000B1
:1026C000F23E0000001110402810104010B5154CCB
:1026D00015492046FFF75EFD14492046FFF736FDF9
:1026E0000320C103124802688A43026001692B4A31
:1026F0000A40D0320261416915220A432A218A43E5
:102700004261416801221140436893435918416076
:102710009102084B1C680C431C6001681143016066
:1027200010BDC04600201040FC3E0000FE3E0000F0
:10273000003110402830104010B5144C1449204688
:10274000FFF728FD13492046FFF700FD0321CA03C8
:1027500011480368934303600269104B13401A3316
:10276000036142690A433C218A4342614168012274
:10277000114043689343591841609102084B1C680B
:102780000C431C6001681143016010BD0000504003
:10279000083F00000A3F0000001150400000FFFF0A
:1027A0002810504080B500F02FF8FFF74BFDFFF7E1
:1027B000F7FDFFF7BDFEFFF777FEFFF751FEFFF7CE
:1027C0002DFEFFF7FDFEFFF7C1FDFFF715FFFFF739
:1027D00049FFFFF7B1FFFFF779FFFFF707FEB820CA
:1027E000054900220A5405490A549C2004490A5408
:1027F0002C2004490A5480BDAC0020206801202010
:1028000024022020C4022020F0B581B01848194AC3
:1028100042601948426019484260194842601948AC
:10282000426019484260194F7A60194D6A60194C2C
:102830006260194B5A6019494A6019484260194A46
:102840000B4E32600C4E32600C4E32600C4E3260D9
:102850000C4E32600C4E32603A602A6022601A6080
:102860000A6002601020FFF702FB01B0F0BDC04615
:1028700000080A40030000B100280A400008874011
:1028800000480840002886400008864000888640AE
:1028900000280F40008810400008104000085040F9
:1028A0000028104001000026F0B581B00D4601243B
:1028B000220240210028134600DA0B46104F3B60ED
:1028C000002800DA11463961C217811851400D4EB7
:1028D00000223046FFF724FCE105E006002D0A4601
:1028E00000DA02463A60002D00DA08463861E8173F
:1028F0002918414030462246FFF712FC01B0F0BDD6
:1029000090320A4000400840E1480168002902D0A6
:102910000168491E016070471B490868C0B2012860
:1029200031D10120886219490A78521C0A70D2B24A
:10293000142A03D3164A107000220A7015490A7827
:10294000521C0A70D2B20A2A03D3134A1070002212
:102950000A7012490A78521C0A70D2B2642A03D350
:102960000F4A1070002008700E48017800290AD024
:102970000D490A78521C0A70D2B2D208192A02D321
:10298000002202700A70704720108640B903202090
:1029900001032020BA032020030320201903202054
:1029A000FF022020FE022020900020201849086805
:1029B000C0B2012820D10120886216490A78002A75
:1029C0000FD04A88002A0CD0521E4A80120408D127
:1029D000114A13688343136000220A7001040F4AEE
:1029E00011600F490A78002A06D04A88002A03D0CD
:1029F000521E4A80120400D07047074A136883436E
:102A0000136000220A708005044908607047C046C0
:102A100020308640800320200418874090120A400E
:102A200086032020B0B50E480168C9B2012915D12E
:102A30000C490A68F74B1A600B4B1C6800251D6097
:102A40000D606142F54B196008490B689A180A60DD
:102A500007490A68121B0A6001218162B0BDC046A5
:102A6000209086406C00202070002020A0002020B4
:102A7000A800202080B507480168090609D006494A
:102A80000968064A1170012292028262C8B200F0FF
:102A900099FB80BD2090104024911040EC03202031
:102AA00080B506480068000606D00548006805495C
:102AB0000870C0B200F002FB80BDC046203010405C
:102AC00024311040EE032020B0B5154908680006F7
:102AD0001BD01448026814480270012083028B62E4
:102AE00012490B78002B11D0114C2578114B5A55F7
:102AF0006A1C2270D2B2072A07D3002222700A7001
:102B00000D49087058780D490870B0BDD2B2552AE9
:102B1000FBD1074A1070074A552313700870B0BDE7
:102B20002010504024115040EF032020F9032020B2
:102B3000F8032020F1032020F00320201803202098
:102B40000148802101607047A0320A40014880217D
:102B50000160704780320A40F0B587B001784C427E
:102B60004C414778002F00D1641C82780692002ADD
:102B700000D1641CC678002E00D1641C0579002D9C
:102B800000D1641C4379002B00D1641C8279002A97
:102B900000D1641CC079002800D1641C002C55D0E1
:102BA0000295059031480025057000290492039391
:102BB000019600D12E4D2F49284600F057FF0646BA
:102BC000002F00D02E4603208107304600F04EFF34
:102BD00007460698002800D037462749384600F0B7
:102BE00045FF05460198002800D03D467F20C105DD
:102BF000284600F03BFF06460298002800D02E46EB
:102C000001208107304600F031FF07460398002875
:102C100000D037461949384600F028FF0546049889
:102C2000002800D03D468120C105284600F01EFF47
:102C300006460598002800D02E462046FDF784FE63
:102C400001463046FDF786FD0D4908E0074801784A
:102C5000491C0170C8B2052804D909490020086040
:102C600007B0F0BD0648006807B0F0BD4C03202057
:102C7000000080C0000040C0000080BF0000404055
:102C8000140320200249086008680028FCD170471E
:102C90009400202083B070B5FFB082B004468591C7
:102CA0008692879385A88090012045026E46304623
:102CB0002946FDF74DFC809B304629462246FDF70C
:102CC000EBFA317800290AD0084A6B461468E40709
:102CD000FCD191615C1C597800292346F6D17FB064
:102CE00002B070BC02BC03B00847C04608111040D7
:102CF000F0B581B004463E4D284600F075F92878BD
:102D0000002817D06878002814D0A878002811D09F
:102D1000E87800280ED0287900280BD068790028A0
:102D200008D0A879002805D0E879002802D0002032
:102D3000014659E02E48FFF70FFF02465548002193
:102D40002C4B00F07DFC05462B480068214600F026
:102D50007FFF0646294900F032FE074628493046E3
:102D600000F084FE0446002F00D134462549204659
:102D700000F03DFE06462449204600F077FE002E76
:102D800000D12046214900F00BFF04462846FDF7FC
:102D9000DBFD0146204600F069FE04461C48006841
:102DA000FDF7D2FD0546214600F052FF06462046BB
:102DB000294600F05BFE044616480068FDF7C4FD96
:102DC00002462F48144D31462B4600F039FC06468A
:102DD00012480068FDF7B8FD02462C4821462B46F4
:102DE00000F02EFC01463046FFF75EFD01B0F0BD5D
:102DF000F5022020CDCCCC3EB4032020000034438B
:102E00000000B4C3000034C30000B4436666E63E6D
:102E1000000020209C0020209A99193FA400202027
:102E2000F0B583B01348029013480190134F0097F8
:102E30001348144D144E002429463246234600F010
:102E40005FFC00970C4801900A4802900F48294601
:102E50003246234600F054FC0D4800970649019184
:102E60000290012081070B480B4B224600F048FCE2
:102E700003B0F0BD00007A440000A0C20000A042F0
:102E80001C0320206666663F6F12833C500320209F
:102E900000004844BC03202000007242F0B583B01B
:102EA000F7480078002809D0F3480088F1490988DC
:102EB0000EB2F2498E4214D1884212D142480178B2
:102EC000042901D8491C7CE00024204600F052FC73
:102ED000012000F04FFC4048C4603E48C46003B08D
:102EE000F0BD00B23849002201920A70C01CFDF703
:102EF0002BFD0090354F38403549029000F06AFDB7
:102F00000446401E84410A3E3046FDF71DFD05463D
:102F1000074038462E4900F05DFD0646401E8641BA
:102F200026402C4829462A4D00F054FC04462A48E5
:102F3000009900F04FFC0090284806703846019F29
:102F4000294600F054FD00283E4600D1264602984E
:102F5000294600F04CFD002800D1009F2048007851
:102F6000002814D10120C10730468843FDF7A2FC98
:102F700000280CD0044600253046294600F01FFDED
:102F80000146401E81412846224600F0C9FB1548F3
:102F90000078002813D10120C10738468843FDF787
:102FA00089FC00280BD004460021384600F012FDB1
:102FB0000146401E81410120224600F0B1FBAA4893
:102FC0000021017003B0F0BDF4022020FFFFFF7F5D
:102FD0000000A0408C032020A0032020FD02202020
:102FE000800320208603202010B50446FFF724F933
:102FF0000D4908700122024022700878C109E17170
:103000004106C90FA1718106C90F6171C106C90FBF
:1030100021710107C90FE1704107C90FA170800735
:10302000C00F607010BDC04668002020F0B583B0AE
:10303000064602AB19701C48012219460192FEF7A0
:103040001BFF1A4F38688006FCD53D46083D2868AE
:10305000174908407400001928603E1F3068154960
:10306000084015494018306038684006FCD438687C
:103070008006FCD50C48FEF715FF28680C4908406F
:103080000443019804432C6030680A4908400A4907
:103090000843306038684006FCD438688006FCD5A8
:1030A0007868C0B203B0F0BD00200F4018320F4066
:1030B00000F8FFFFF8FF00F007000100F0B583B053
:1030C000394E317800290BD03178012914D1532899
:1030D00067D136480178364A53235354022107E01A
:1030E00055285ED131480178314A55235354012186
:1030F0003170017003B0F0BD3178022951D12B4BF2
:103100001A782B498854501C1870C0B20B2848D12B
:1031100048780A7810188C780019CD784219087907
:1031200013184A799B188F790297DB19CF79019789
:10313000DB190F7ADB194F7AFB18DBB2897A9942D7
:103140002BD11102081800B2FDF7FEFB0721CF06B4
:10315000394600F025FD174900F022FD16490860A8
:103160002802001900B2FDF7EFFB394600F018FD08
:10317000104C214600F014FD10490860019800022F
:103180000299401800B2FDF7DFFB394600F008FD58
:10319000214600F005FD0A49086000200349087037
:1031A000307003B0F0BDC04688002020870020208A
:1031B0007C00202000003443740020207800202070
:1031C0008C002020F0B525490A78002A1ED0244B17
:1031D0001C78244A1055601C1870C0B209283BD1D5
:1031E000107A2A2836D120480123037050786423AE
:1031F000584394780A2674432018D47800191B4C3D
:103200001B4D17782D2F09D0401908E05B2823D1DA
:1032100013480022027001200870F0BD201A714F7F
:10322000388057797B4397797E43F318D6799B1979
:1032300012792D2A01D05A1900E0E21A6E4B1A8039
:1032400092B20E4B5A4080B258401043421E9041F9
:103250007B4A107000200870F0BDC0460603202095
:103260000503202007032020ED032020D0140000B8
:1032700030EB0000980020209A002020E703000097
:10328000B803202001204002DE4908607047C04694
:1032900001204002014908607047C04680320A4060
:1032A00083B070B5FFB082B0044685918692879353
:1032B00085A88090012045026E4630462946FDF7DC
:1032C00047F9809B304629462246FCF7E5FF3178D6
:1032D00000290AD0084A6B461468E407FCD19161C2
:1032E0005C1C597800292346F6D17FB002B070BC2F
:1032F00002BC03B00847C0460891104010B53948D9
:10330000008801B20A3938A000F0C4F83A480088B1
:1033100000B2C11C39A000F0BDF83C48007802287A
:103320001DD001285DD15048047850A000F0B2F8BB
:1033300053A000F0AFF8002C2DD0404800F0AAF8C0
:103340003F48007800283AD03E4800F0A3F83E48B5
:10335000007800281BD03D4800F09CF810BD2C4898
:1033600004782CA000F096F82FA000F093F8002C21
:103370001BD0324800F08EF831480078002829D060
:10338000304800F087F8304800780028E3D1304812
:1033900000F080F810BD314800F07CF8304800F0B3
:1033A00079F8304800F076F810BD2C4800F072F83B
:1033B0002B4800F06FF82B4800F06CF811E025481E
:1033C00000F068F82048007800280AD1224800F070
:1033D00061F810BD1F4800F05DF81B480078002818
:1033E000F4D010BD980020206E302E76616C3D2503
:1033F00064FFFFFF000000009A0020206E312E764F
:10340000616C3D2564FFFFFF0000000004002020E8
:10341000040320207432332E7478743D22B6AFCC6E
:10342000AC22FFFFFF0000007432352E7478743D2B
:10343000227461736B3222FFFFFF0000143F000013
:10344000B8032020773F0000FD022020A33F0000AA
:10345000463F00002F3F00008D3F00005F3F00000F
:10346000BB3F0000CF3F0000020320207432332E08
:103470007478743D22BEB2CCAC22FFFFFF00000086
:103480007432352E7478743D227461736B3122FF6F
:10349000FFFF000083B070B5FFB082B00446859195
:1034A0008692879385A88090012045026E4630461B
:1034B0002946FDF74DF8809B304629462246FCF709
:1034C000EBFE317800290AD0084A6B461468E407FD
:1034D000FCD191615C1C597800292346F6D17FB05C
:1034E00002B070BC02BC03B00847C046081150408F
:1034F00080B51F480178022915D0012921D0002963
:1035000032D11F4901220A70FF2101701A4900209F
:1035100008701A4908701B4908700146FFF7C4F982
:10352000FFF7ECFE80BDFF210170124800780228F1
:1035300014D0012818D11148002101700E48012132
:1035400008E0FF210170F8480178491CCAB2022A3C
:1035500000D901210170FFF7D1FE80BDF1480021A3
:103560000170F34801210170FFF7C8FE80BDC0461D
:103570001803202004002020020320200403202020
:1035800000032020FD02202082B0FFF70BF9012567
:10359000AF041A4C2760E9042160EE032660AB03F8
:1035A00023600822226002200190206068042060CD
:1035B000134C2760216026602360226001992160FE
:1035C0002060104E30461038802707604B20840062
:1035D0002046FFF757FB3760A8053060D4343460CD
:1035E00000F0E4F8FFF71CFC07A0FFF759FE0CA061
:1035F000FFF750FB00F02CF9FCE7C04680E200E04A
:1036000000E100E0A0320A4073797374656D2069AF
:103610006E69742073756363657373210A0000001B
:10362000626C7565746F6F74683A73797374656DE5
:1036300020696E69742073756363657373210A0072
:10364000F0B583B0029304460846114600F000FB33
:103650000646216A00F00AFA05462062E76A394602
:1036600000F0ADF9002808D10120C00747402846E6
:10367000394600F099F9002801D127623D46E168FA
:10368000304600F08DFA07462069294600F088FA96
:103690000146384600F0EAF90546E169304600F097
:1036A000D7FA0146606900F07BFA0146284600F02F
:1036B000DDF90546676A394600F081F9002808D12E
:1036C000A16A2846019100F06FF900282F4600D129
:1036D000019FE661A068029E314600F061FA05464E
:1036E0007F20C005314600F0B3FA394600F058FAA1
:1036F000294600F0BBF9A060FDF7DCF803B0F0BD8F
:1037000010B500240462C461846143610261C16038
:103710000499C1620399816202994162846010BD7B
:1037200010B5002801D01F4B00E01D4B58711971D6
:103730005A8001221A700E4B002807D090051406FB
:1037400000290BD0194610390C600AE094031004CC
:10375000002905D0194610390C6002E01C6000E019
:103760001C6018600D4801681143016010BDC0461F
:10377000A0120A40094A136801218B4313600028F4
:1037800001D0084A00E0064A00231370002801D047
:10379000880500E008040449086070470418874061
:1037A000800320208603202090120A4070B56148D3
:1037B000614C0025064E21462A46334600F042F869
:1037C0005F4821462A46334600F03CF870BDC046AB
:1037D000CDCC4C3DF0B581B00D460446006900905B
:1037E0002161E06800F042F90746144E314600F0CE
:1037F000E6F8002800D13E46114F3046394600F029
:10380000F6F8002800D13746E7606068394600F0D6
:10381000C7F906462068294600F0C2F9314600F093
:1038200025F906462846009900F012FAA16800F032
:10383000B7F9314600F01AF901B0F0BD0000FA44C2
:103840000000FAC410B500241EC0046010BD0000C2
:1038500070B52F4C2078002803D0FFF749FE0020D8
:1038600020702C4C2078002802D0FFF711FD01E0D9
:10387000FFF708FD28482178002908D00278002A9F
:1038800005D1264A00231370254A012313700170C5
:1038900023480078002802D0FFF758F901E0FFF72D
:1038A0004FF92148007801280CD11E4909780029D8
:1038B00008D01E480178002929D000210170FFF7A7
:1038C000EDFA70BD022822D11948007800281ED0D8
:1038D0001848194D0024194E294622463346FFF751
:1038E000B1FF1748294622463346FFF7ABFF0F4882
:1038F0000178002902D00470FFF7D0FA114801784E
:10390000002904D0047010480068FFF7F1F970BD79
:10391000FF022020FD022020110320209000202003
:10392000FE0220200203202004002020010320208A
:10393000040320208C0320200000E040CDCC0C3F6D
:10394000A0032020030320208C002020F8B5040CC5
:103950008BB2264682B25E43104658430D0C370C9C
:10396000360400218019164679416E43370C36041F
:103970008019264679416E438919F8BD4900CA026B
:103980000243100000D004204A0D01D00122104350
:10399000044A490D914201D102210843012800D176
:1039A00005207047FF07000010B500F0A5F8EFF301
:1039B0000080800001D5012010BD002010BD10B591
:1039C00000F09AF8EFF300804000800F012800D04B
:1039D000002010BD10B500F0B9F8EFF300804000F2
:1039E000800F012801D0012010BD002010BD10B5AE
:1039F00000F0ACF8EFF30080800001D4012010BD8E
:103A0000002010BD30380A2801D201207047002064
:103A10007047000010B500290AD00878002807D0A8
:103A200005487844FEF794F9002801D0002010BD25
:103A30000248784410BD0000E6050000DE050000E5
:103A400010B500290AD00878002807D00548784426
:103A5000FEF77EF9002801D0002010BD024878440E
:103A600010BD0000D6050000CE05000070B5012590
:103A7000ED0704004C4020D4441A01D2001B091960
:103A8000C60D4B00F2B2FF2A29D01B0E2CD000022B
:103A90000C0228432C43D31ADC40051910D2280A03
:103AA00002D3401C6D0611D0761EF6058019FF2A40
:103AB00000DA70BDC00DC00570BD694000F0CEF8E1
:103AC00001200543C541521C761CE8E764089C4070
:103AD000C90161408900E7D10124A043E4E71B0E3E
:103AE000440200D0034870BD002AFCD1C00FC007BB
:103AF00070BD00BF0000C07F0123DB0502000A4348
:103B00000DD4DA4203D49A4207D488427047D8428F
:103B100014D4D94212D48842704780427047DA42A6
:103B200003D59A42F9D5814270475B004200DA42E0
:103B300004D24A00DA4201D28142704710B5024AEB
:103B4000FDF70CFD10BD00BF090013040123DB05C8
:103B500002000A430DD4DA4203D49A4207D48842C1
:103B60007047D84214D4D94212D488427047804258
:103B70007047DA4203D59A42F9D5814270475B001B
:103B80004200DA4204D24A00DA4201D2814270474E
:103B900010B5024AFDF7E2FC10BD00BF0900160493
:103BA00070B5420064414B005C41120E39D01B0ECF
:103BB00038D0FF2A3CD0FF2B3AD0D2187F3A4002AF
:103BC0004902400A490A4518ED0106004E43000A21
:103BD000090A48430104731A4019190C4318990F34
:103BE00004D05B08012149075B1A521CD80904D391
:103BF000401CF50301D19D0607D0FF2A08D2D50548
:103C000006D0E4072043401970BD0125A843F4E71E
:103C1000002A01DCE00770BD2402FF202043C0051C
:103C200070BD1B0EFF2A03D0FF2B01D0E00770BD33
:103C3000FF2636064500B54206D84D00B54203D8EA
:103C4000D218FF2A00D0E7E7004870BD0000C07F0F
:103C500070B50125ED0704004C4022D4441A02D26D
:103C60006C40001B0919C60D4B00F2B2FF2A4BD065
:103C70001B0E50D000020C02A8432C43D31ADC4088
:103C8000051B05D5AD0019D36D08761E521E37D021
:103C9000F605280A01D2801970BD70416D0603D067
:103CA00070BD6940FFF7E8FE9C4009026140490091
:103CB00001D0401E70BD0124A04370BD6D081DD011
:103CC00001202B0C01D12D0410302B0E01D12D021F
:103CD00008302B0F01D12D01001DAB0F01D1AD001C
:103CE000801CEB0F01D16D00401C361A121A6D00BA
:103CF000680AF5054019012A02DB70BD002070BD7D
:103D0000C036300AC00770BD1B0E440201D1FF2B24
:103D100000D1024870BD002AF0D070BD0000C07F05
:103D200003B402487844844603BC604745D2FFFF91
:103D300003B402487844844603BC6047ADD4FFFF17
:103D40000400000800000000000000020001000064
:103D5000108182838485868788898B8C8D8E8F9154
:103D60009293959697999A9C9D9FA0A2A3A5A7A888
:103D7000AAACAEB0B2B3B5B7B9BCBEC0C2C5C7C9B4
:103D8000CCCED1D4D7D9DCDFE2E6E9ECF0F3F7FA18
:103D9000FE0000000000000000000000303132335F
:103DA000343536373839414243444546403058006F
:103DB00030313233343536373839616263646566A1
:103DC000403078003031323334353637383961623B
:103DD0006364656678700030313233343536373895
:103DE000394142434445465850000000024000001B
:103DF000000000A00000000005400000000000C816
:103E0000000000000C4000000000409C000000008A
:103E1000194000000020BCBE00000000344000003B
:103E2000BFC91B8E00000004B5400000504BCFD02E
:103E30006607E2CF010000006C4100003E8251AAFB
:103E4000DFEEA73401000000D9420000DCB5A0E29B
:103E50003A301F97FFFFFFFFB4450000FD25A0C8C3
:103E6000E9A3C14FFFFFFFFFFF3F000000000080FC
:103E700000000000FF3F0000000000800000000084
:103E8000080008000000000002000000FF7C0000A5
:103E90000100000000000000000000000800000019
:103EA00002000000FF7C0000010000000000000094
:103EB000000000000807010064000000200001006D
:103EC00008010000803E00002000010008030700F8
:103ED000020000001F4E0000010000000000000072
:103EE0000000000004000000180000000030000086
:103EF000040000001800000000300000080000006E
:103F0000180000000030000004000000180000004D
:103F1000003000007431372E7478743D22D5FDD402
:103F2000DAD4CBD0D0D6D02E2E2E22FFFFFF0074B5
:103F300031312E7478743D22CAB6B1F0D6D02E2E0F
:103F40002E22FFFFFF007431342E7478743D22D589
:103F5000FDD4DAD7B7D7D92E2E2E22FFFFFF00745B
:103F600031372E7478743D22B3F5CABCBBAFB3C9E8
:103F7000B9A622FFFFFF007431312E7478743D2200
:103F8000CAB6B1F0B3C9B9A622FFFFFF007431343D
:103F90002E7478743D22C4BFB1EAB6AACAA722FF24
:103FA000FFFF007431342E7478743D22C4BFB1EA2F
:103FB000D2D1CBF8B6A822FFFFFF007431312E74A6
:103FC00078743D22CEB4C6F4B6AF22FFFFFF007472
:103FD00031342E7478743D22CEB4C6F4B6AF22FFCD
:103FE000FFFF00000000000038410000000020201A
:103FF00008000000080100004041000008002020E7
:10400000F8450000280100001C00000043000000EB
:10401000F8FFFFFF0C0000000E0000000F00000082
:104020002E0000001001000043000000F8FFFFFF19
:1040300000404040404040404040414141414140BB
:104040004040404040404040404040404040404070
:1040500040050202020202020202020202020202FF
:104060000220202020202020202020020202020204
:10407000020290909090909010101010101010105C
:104080001010101010101010101010100202020268
:1040900002028888888888880808080808080808AC
:1040A00008080808080808080808080802020202A8
:1040B00040000000000000000000000000000000C0
:1040C00000000000000000000000000000000000F0
:1040D00000000000000000000000000000000000E0
:1040E00000000000000000000000000000000000D0
:1040F00000000000000000000000000000000000C0
:1041000000000000000000000000000000000000AF
:10411000000000000000000000000000000000009F
:10412000000000000000000000000000000000008F
:1041300000000000000000000A0000000100000074
:04000005000000C136
:00000001FF
